{"contracts/YieldVault.sol":{"YieldVaultLite":{"abi":[{"anonymous":false,"inputs":[{"indexed":true,"internalType":"address","name":"user","type":"address"},{"indexed":true,"internalType":"uint256","name":"assetId","type":"uint256"},{"indexed":false,"internalType":"uint256","name":"amount","type":"uint256"}],"name":"Invested","type":"event"},{"inputs":[{"internalType":"address","name":"user","type":"address"}],"name":"getPositions","outputs":[{"components":[{"internalType":"uint256","name":"assetId","type":"uint256"},{"internalType":"uint256","name":"amount","type":"uint256"},{"internalType":"uint256","name":"timestamp","type":"uint256"}],"internalType":"struct YieldVaultLite.Position[]","name":"","type":"tuple[]"}],"stateMutability":"view","type":"function"},{"inputs":[{"internalType":"uint256","name":"assetId","type":"uint256"}],"name":"invest","outputs":[],"stateMutability":"payable","type":"function"},{"inputs":[{"internalType":"address","name":"","type":"address"},{"internalType":"uint256","name":"","type":"uint256"}],"name":"positions","outputs":[{"internalType":"uint256","name":"assetId","type":"uint256"},{"internalType":"uint256","name":"amount","type":"uint256"},{"internalType":"uint256","name":"timestamp","type":"uint256"}],"stateMutability":"view","type":"function"}],"evm":{"bytecode":{"linkReferences":{},"object":"608060405234801561001057600080fd5b50610673806100206000396000f3fe6080604052600436106100345760003560e01c80632afcf480146100395780633eeb530e14610055578063c1be667714610092575b600080fd5b610053600480360381019061004e9190610345565b6100d1565b005b34801561006157600080fd5b5061007c600480360381019061007791906103d0565b610208565b60405161008991906104fd565b60405180910390f35b34801561009e57600080fd5b506100b960048036038101906100b4919061051f565b6102c3565b6040516100c89392919061056e565b60405180910390f35b60003411610114576040517f08c379a000000000000000000000000000000000000000000000000000000000815260040161010b90610602565b60405180910390fd5b6000803373ffffffffffffffffffffffffffffffffffffffff1673ffffffffffffffffffffffffffffffffffffffff16815260200190815260200160002060405180606001604052808381526020013481526020014281525090806001815401808255809150506001900390600052602060002090600302016000909190919091506000820151816000015560208201518160010155604082015181600201555050803373ffffffffffffffffffffffffffffffffffffffff167f9e9d071824fd57d062ca63fd8b786d8da48a6807eebbcb2d83f9e8d21398e28c346040516101fd9190610622565b60405180910390a350565b60606000808373ffffffffffffffffffffffffffffffffffffffff1673ffffffffffffffffffffffffffffffffffffffff168152602001908152602001600020805480602002602001604051908101604052809291908181526020016000905b828210156102b85783829060005260206000209060030201604051806060016040529081600082015481526020016001820154815260200160028201548152505081526020019060010190610268565b505050509050919050565b600060205281600052604060002081815481106102df57600080fd5b9060005260206000209060030201600091509150508060000154908060010154908060020154905083565b600080fd5b6000819050919050565b6103228161030f565b811461032d57600080fd5b50565b60008135905061033f81610319565b92915050565b60006020828403121561035b5761035a61030a565b5b600061036984828501610330565b91505092915050565b600073ffffffffffffffffffffffffffffffffffffffff82169050919050565b600061039d82610372565b9050919050565b6103ad81610392565b81146103b857600080fd5b50565b6000813590506103ca816103a4565b92915050565b6000602082840312156103e6576103e561030a565b5b60006103f4848285016103bb565b91505092915050565b600081519050919050565b600082825260208201905092915050565b6000819050602082019050919050565b6104328161030f565b82525050565b60608201600082015161044e6000850182610429565b5060208201516104616020850182610429565b5060408201516104746040850182610429565b50505050565b60006104868383610438565b60608301905092915050565b6000602082019050919050565b60006104aa826103fd565b6104b48185610408565b93506104bf83610419565b8060005b838110156104f05781516104d7888261047a565b97506104e283610492565b9250506001810190506104c3565b5085935050505092915050565b60006020820190508181036000830152610517818461049f565b905092915050565b600080604083850312156105365761053561030a565b5b6000610544858286016103bb565b925050602061055585828601610330565b9150509250929050565b6105688161030f565b82525050565b6000606082019050610583600083018661055f565b610590602083018561055f565b61059d604083018461055f565b949350505050565b600082825260208201905092915050565b7f4e6f2076616c75652073656e7400000000000000000000000000000000000000600082015250565b60006105ec600d836105a5565b91506105f7826105b6565b602082019050919050565b6000602082019050818103600083015261061b816105df565b9050919050565b6000602082019050610637600083018461055f565b9291505056fea2646970667358221220504f43c98fdfda00955f01fe8e02616e59382ac7ccd57a12e11ffc975dbb22f164736f6c63430008140033","opcodes":"PUSH1 0x80 PUSH1 0x40 MSTORE CALLVALUE DUP1 ISZERO PUSH2 0x10 JUMPI PUSH1 0x0 DUP1 REVERT JUMPDEST POP PUSH2 0x673 DUP1 PUSH2 0x20 PUSH1 0x0 CODECOPY PUSH1 0x0 RETURN INVALID PUSH1 0x80 PUSH1 0x40 MSTORE PUSH1 0x4 CALLDATASIZE LT PUSH2 0x34 JUMPI PUSH1 0x0 CALLDATALOAD PUSH1 0xE0 SHR DUP1 PUSH4 0x2AFCF480 EQ PUSH2 0x39 JUMPI DUP1 PUSH4 0x3EEB530E EQ PUSH2 0x55 JUMPI DUP1 PUSH4 0xC1BE6677 EQ PUSH2 0x92 JUMPI JUMPDEST PUSH1 0x0 DUP1 REVERT JUMPDEST PUSH2 0x53 PUSH1 0x4 DUP1 CALLDATASIZE SUB DUP2 ADD SWAP1 PUSH2 0x4E SWAP2 SWAP1 PUSH2 0x345 JUMP JUMPDEST PUSH2 0xD1 JUMP JUMPDEST STOP JUMPDEST CALLVALUE DUP1 ISZERO PUSH2 0x61 JUMPI PUSH1 0x0 DUP1 REVERT JUMPDEST POP PUSH2 0x7C PUSH1 0x4 DUP1 CALLDATASIZE SUB DUP2 ADD SWAP1 PUSH2 0x77 SWAP2 SWAP1 PUSH2 0x3D0 JUMP JUMPDEST PUSH2 0x208 JUMP JUMPDEST PUSH1 0x40 MLOAD PUSH2 0x89 SWAP2 SWAP1 PUSH2 0x4FD JUMP JUMPDEST PUSH1 0x40 MLOAD DUP1 SWAP2 SUB SWAP1 RETURN JUMPDEST CALLVALUE DUP1 ISZERO PUSH2 0x9E JUMPI PUSH1 0x0 DUP1 REVERT JUMPDEST POP PUSH2 0xB9 PUSH1 0x4 DUP1 CALLDATASIZE SUB DUP2 ADD SWAP1 PUSH2 0xB4 SWAP2 SWAP1 PUSH2 0x51F JUMP JUMPDEST PUSH2 0x2C3 JUMP JUMPDEST PUSH1 0x40 MLOAD PUSH2 0xC8 SWAP4 SWAP3 SWAP2 SWAP1 PUSH2 0x56E JUMP JUMPDEST PUSH1 0x40 MLOAD DUP1 SWAP2 SUB SWAP1 RETURN JUMPDEST PUSH1 0x0 CALLVALUE GT PUSH2 0x114 JUMPI PUSH1 0x40 MLOAD PUSH32 0x8C379A000000000000000000000000000000000000000000000000000000000 DUP2 MSTORE PUSH1 0x4 ADD PUSH2 0x10B SWAP1 PUSH2 0x602 JUMP JUMPDEST PUSH1 0x40 MLOAD DUP1 SWAP2 SUB SWAP1 REVERT JUMPDEST PUSH1 0x0 DUP1 CALLER PUSH20 0xFFFFFFFFFFFFFFFFFFFFFFFFFFFFFFFFFFFFFFFF AND PUSH20 0xFFFFFFFFFFFFFFFFFFFFFFFFFFFFFFFFFFFFFFFF AND DUP2 MSTORE PUSH1 0x20 ADD SWAP1 DUP2 MSTORE PUSH1 0x20 ADD PUSH1 0x0 KECCAK256 PUSH1 0x40 MLOAD DUP1 PUSH1 0x60 ADD PUSH1 0x40 MSTORE DUP1 DUP4 DUP2 MSTORE PUSH1 0x20 ADD CALLVALUE DUP2 MSTORE PUSH1 0x20 ADD TIMESTAMP DUP2 MSTORE POP SWAP1 DUP1 PUSH1 0x1 DUP2 SLOAD ADD DUP1 DUP3 SSTORE DUP1 SWAP2 POP POP PUSH1 0x1 SWAP1 SUB SWAP1 PUSH1 0x0 MSTORE PUSH1 0x20 PUSH1 0x0 KECCAK256 SWAP1 PUSH1 0x3 MUL ADD PUSH1 0x0 SWAP1 SWAP2 SWAP1 SWAP2 SWAP1 SWAP2 POP PUSH1 0x0 DUP3 ADD MLOAD DUP2 PUSH1 0x0 ADD SSTORE PUSH1 0x20 DUP3 ADD MLOAD DUP2 PUSH1 0x1 ADD SSTORE PUSH1 0x40 DUP3 ADD MLOAD DUP2 PUSH1 0x2 ADD SSTORE POP POP DUP1 CALLER PUSH20 0xFFFFFFFFFFFFFFFFFFFFFFFFFFFFFFFFFFFFFFFF AND PUSH32 0x9E9D071824FD57D062CA63FD8B786D8DA48A6807EEBBCB2D83F9E8D21398E28C CALLVALUE PUSH1 0x40 MLOAD PUSH2 0x1FD SWAP2 SWAP1 PUSH2 0x622 JUMP JUMPDEST PUSH1 0x40 MLOAD DUP1 SWAP2 SUB SWAP1 LOG3 POP JUMP JUMPDEST PUSH1 0x60 PUSH1 0x0 DUP1 DUP4 PUSH20 0xFFFFFFFFFFFFFFFFFFFFFFFFFFFFFFFFFFFFFFFF AND PUSH20 0xFFFFFFFFFFFFFFFFFFFFFFFFFFFFFFFFFFFFFFFF AND DUP2 MSTORE PUSH1 0x20 ADD SWAP1 DUP2 MSTORE PUSH1 0x20 ADD PUSH1 0x0 KECCAK256 DUP1 SLOAD DUP1 PUSH1 0x20 MUL PUSH1 0x20 ADD PUSH1 0x40 MLOAD SWAP1 DUP2 ADD PUSH1 0x40 MSTORE DUP1 SWAP3 SWAP2 SWAP1 DUP2 DUP2 MSTORE PUSH1 0x20 ADD PUSH1 0x0 SWAP1 JUMPDEST DUP3 DUP3 LT ISZERO PUSH2 0x2B8 JUMPI DUP4 DUP3 SWAP1 PUSH1 0x0 MSTORE PUSH1 0x20 PUSH1 0x0 KECCAK256 SWAP1 PUSH1 0x3 MUL ADD PUSH1 0x40 MLOAD DUP1 PUSH1 0x60 ADD PUSH1 0x40 MSTORE SWAP1 DUP2 PUSH1 0x0 DUP3 ADD SLOAD DUP2 MSTORE PUSH1 0x20 ADD PUSH1 0x1 DUP3 ADD SLOAD DUP2 MSTORE PUSH1 0x20 ADD PUSH1 0x2 DUP3 ADD SLOAD DUP2 MSTORE POP POP DUP2 MSTORE PUSH1 0x20 ADD SWAP1 PUSH1 0x1 ADD SWAP1 PUSH2 0x268 JUMP JUMPDEST POP POP POP POP SWAP1 POP SWAP2 SWAP1 POP JUMP JUMPDEST PUSH1 0x0 PUSH1 0x20 MSTORE DUP2 PUSH1 0x0 MSTORE PUSH1 0x40 PUSH1 0x0 KECCAK256 DUP2 DUP2 SLOAD DUP2 LT PUSH2 0x2DF JUMPI PUSH1 0x0 DUP1 REVERT JUMPDEST SWAP1 PUSH1 0x0 MSTORE PUSH1 0x20 PUSH1 0x0 KECCAK256 SWAP1 PUSH1 0x3 MUL ADD PUSH1 0x0 SWAP2 POP SWAP2 POP POP DUP1 PUSH1 0x0 ADD SLOAD SWAP1 DUP1 PUSH1 0x1 ADD SLOAD SWAP1 DUP1 PUSH1 0x2 ADD SLOAD SWAP1 POP DUP4 JUMP JUMPDEST PUSH1 0x0 DUP1 REVERT JUMPDEST PUSH1 0x0 DUP2 SWAP1 POP SWAP2 SWAP1 POP JUMP JUMPDEST PUSH2 0x322 DUP2 PUSH2 0x30F JUMP JUMPDEST DUP2 EQ PUSH2 0x32D JUMPI PUSH1 0x0 DUP1 REVERT JUMPDEST POP JUMP JUMPDEST PUSH1 0x0 DUP2 CALLDATALOAD SWAP1 POP PUSH2 0x33F DUP2 PUSH2 0x319 JUMP JUMPDEST SWAP3 SWAP2 POP POP JUMP JUMPDEST PUSH1 0x0 PUSH1 0x20 DUP3 DUP5 SUB SLT ISZERO PUSH2 0x35B JUMPI PUSH2 0x35A PUSH2 0x30A JUMP JUMPDEST JUMPDEST PUSH1 0x0 PUSH2 0x369 DUP5 DUP3 DUP6 ADD PUSH2 0x330 JUMP JUMPDEST SWAP2 POP POP SWAP3 SWAP2 POP POP JUMP JUMPDEST PUSH1 0x0 PUSH20 0xFFFFFFFFFFFFFFFFFFFFFFFFFFFFFFFFFFFFFFFF DUP3 AND SWAP1 POP SWAP2 SWAP1 POP JUMP JUMPDEST PUSH1 0x0 PUSH2 0x39D DUP3 PUSH2 0x372 JUMP JUMPDEST SWAP1 POP SWAP2 SWAP1 POP JUMP JUMPDEST PUSH2 0x3AD DUP2 PUSH2 0x392 JUMP JUMPDEST DUP2 EQ PUSH2 0x3B8 JUMPI PUSH1 0x0 DUP1 REVERT JUMPDEST POP JUMP JUMPDEST PUSH1 0x0 DUP2 CALLDATALOAD SWAP1 POP PUSH2 0x3CA DUP2 PUSH2 0x3A4 JUMP JUMPDEST SWAP3 SWAP2 POP POP JUMP JUMPDEST PUSH1 0x0 PUSH1 0x20 DUP3 DUP5 SUB SLT ISZERO PUSH2 0x3E6 JUMPI PUSH2 0x3E5 PUSH2 0x30A JUMP JUMPDEST JUMPDEST PUSH1 0x0 PUSH2 0x3F4 DUP5 DUP3 DUP6 ADD PUSH2 0x3BB JUMP JUMPDEST SWAP2 POP POP SWAP3 SWAP2 POP POP JUMP JUMPDEST PUSH1 0x0 DUP2 MLOAD SWAP1 POP SWAP2 SWAP1 POP JUMP JUMPDEST PUSH1 0x0 DUP3 DUP3 MSTORE PUSH1 0x20 DUP3 ADD SWAP1 POP SWAP3 SWAP2 POP POP JUMP JUMPDEST PUSH1 0x0 DUP2 SWAP1 POP PUSH1 0x20 DUP3 ADD SWAP1 POP SWAP2 SWAP1 POP JUMP JUMPDEST PUSH2 0x432 DUP2 PUSH2 0x30F JUMP JUMPDEST DUP3 MSTORE POP POP JUMP JUMPDEST PUSH1 0x60 DUP3 ADD PUSH1 0x0 DUP3 ADD MLOAD PUSH2 0x44E PUSH1 0x0 DUP6 ADD DUP3 PUSH2 0x429 JUMP JUMPDEST POP PUSH1 0x20 DUP3 ADD MLOAD PUSH2 0x461 PUSH1 0x20 DUP6 ADD DUP3 PUSH2 0x429 JUMP JUMPDEST POP PUSH1 0x40 DUP3 ADD MLOAD PUSH2 0x474 PUSH1 0x40 DUP6 ADD DUP3 PUSH2 0x429 JUMP JUMPDEST POP POP POP POP JUMP JUMPDEST PUSH1 0x0 PUSH2 0x486 DUP4 DUP4 PUSH2 0x438 JUMP JUMPDEST PUSH1 0x60 DUP4 ADD SWAP1 POP SWAP3 SWAP2 POP POP JUMP JUMPDEST PUSH1 0x0 PUSH1 0x20 DUP3 ADD SWAP1 POP SWAP2 SWAP1 POP JUMP JUMPDEST PUSH1 0x0 PUSH2 0x4AA DUP3 PUSH2 0x3FD JUMP JUMPDEST PUSH2 0x4B4 DUP2 DUP6 PUSH2 0x408 JUMP JUMPDEST SWAP4 POP PUSH2 0x4BF DUP4 PUSH2 0x419 JUMP JUMPDEST DUP1 PUSH1 0x0 JUMPDEST DUP4 DUP2 LT ISZERO PUSH2 0x4F0 JUMPI DUP2 MLOAD PUSH2 0x4D7 DUP9 DUP3 PUSH2 0x47A JUMP JUMPDEST SWAP8 POP PUSH2 0x4E2 DUP4 PUSH2 0x492 JUMP JUMPDEST SWAP3 POP POP PUSH1 0x1 DUP2 ADD SWAP1 POP PUSH2 0x4C3 JUMP JUMPDEST POP DUP6 SWAP4 POP POP POP POP SWAP3 SWAP2 POP POP JUMP JUMPDEST PUSH1 0x0 PUSH1 0x20 DUP3 ADD SWAP1 POP DUP2 DUP2 SUB PUSH1 0x0 DUP4 ADD MSTORE PUSH2 0x517 DUP2 DUP5 PUSH2 0x49F JUMP JUMPDEST SWAP1 POP SWAP3 SWAP2 POP POP JUMP JUMPDEST PUSH1 0x0 DUP1 PUSH1 0x40 DUP4 DUP6 SUB SLT ISZERO PUSH2 0x536 JUMPI PUSH2 0x535 PUSH2 0x30A JUMP JUMPDEST JUMPDEST PUSH1 0x0 PUSH2 0x544 DUP6 DUP3 DUP7 ADD PUSH2 0x3BB JUMP JUMPDEST SWAP3 POP POP PUSH1 0x20 PUSH2 0x555 DUP6 DUP3 DUP7 ADD PUSH2 0x330 JUMP JUMPDEST SWAP2 POP POP SWAP3 POP SWAP3 SWAP1 POP JUMP JUMPDEST PUSH2 0x568 DUP2 PUSH2 0x30F JUMP JUMPDEST DUP3 MSTORE POP POP JUMP JUMPDEST PUSH1 0x0 PUSH1 0x60 DUP3 ADD SWAP1 POP PUSH2 0x583 PUSH1 0x0 DUP4 ADD DUP7 PUSH2 0x55F JUMP JUMPDEST PUSH2 0x590 PUSH1 0x20 DUP4 ADD DUP6 PUSH2 0x55F JUMP JUMPDEST PUSH2 0x59D PUSH1 0x40 DUP4 ADD DUP5 PUSH2 0x55F JUMP JUMPDEST SWAP5 SWAP4 POP POP POP POP JUMP JUMPDEST PUSH1 0x0 DUP3 DUP3 MSTORE PUSH1 0x20 DUP3 ADD SWAP1 POP SWAP3 SWAP2 POP POP JUMP JUMPDEST PUSH32 0x4E6F2076616C75652073656E7400000000000000000000000000000000000000 PUSH1 0x0 DUP3 ADD MSTORE POP JUMP JUMPDEST PUSH1 0x0 PUSH2 0x5EC PUSH1 0xD DUP4 PUSH2 0x5A5 JUMP JUMPDEST SWAP2 POP PUSH2 0x5F7 DUP3 PUSH2 0x5B6 JUMP JUMPDEST PUSH1 0x20 DUP3 ADD SWAP1 POP SWAP2 SWAP1 POP JUMP JUMPDEST PUSH1 0x0 PUSH1 0x20 DUP3 ADD SWAP1 POP DUP2 DUP2 SUB PUSH1 0x0 DUP4 ADD MSTORE PUSH2 0x61B DUP2 PUSH2 0x5DF JUMP JUMPDEST SWAP1 POP SWAP2 SWAP1 POP JUMP JUMPDEST PUSH1 0x0 PUSH1 0x20 DUP3 ADD SWAP1 POP PUSH2 0x637 PUSH1 0x0 DUP4 ADD DUP5 PUSH2 0x55F JUMP JUMPDEST SWAP3 SWAP2 POP POP JUMP INVALID LOG2 PUSH5 0x6970667358 0x22 SLT KECCAK256 POP 0x4F NUMBER 0xC9 DUP16 0xDF 0xDA STOP SWAP6 PUSH0 ADD INVALID DUP15 MUL PUSH2 0x6E59 CODESIZE 0x2A 0xC7 0xCC 0xD5 PUSH27 0x12E11FFC975DBB22F164736F6C6343000814003300000000000000 "},"methodIdentifiers":{"getPositions(address)":"3eeb530e","invest(uint256)":"2afcf480","positions(address,uint256)":"c1be6677"}}}}}