{
  "_format": "hh-sol-artifact-1",
  "contractName": "YieldVaultLite",
  "sourceName": "contracts/YieldVault.sol",
  "abi": [
    {
      "anonymous": false,
      "inputs": [
        {
          "indexed": true,
          "internalType": "address",
          "name": "user",
          "type": "address"
        },
        {
          "indexed": true,
          "internalType": "uint256",
          "name": "assetId",
          "type": "uint256"
        },
        {
          "indexed": false,
          "internalType": "uint256",
          "name": "amount",
          "type": "uint256"
        }
      ],
      "name": "Invested",
      "type": "event"
    },
    {
      "inputs": [
        {
          "internalType": "address",
          "name": "user",
          "type": "address"
        }
      ],
      "name": "getPositions",
      "outputs": [
        {
          "components": [
            {
              "internalType": "uint256",
              "name": "assetId",
              "type": "uint256"
            },
            {
              "internalType": "uint256",
              "name": "amount",
              "type": "uint256"
            },
            {
              "internalType": "uint256",
              "name": "timestamp",
              "type": "uint256"
            }
          ],
          "internalType": "struct YieldVaultLite.Position[]",
          "name": "",
          "type": "tuple[]"
        }
      ],
      "stateMutability": "view",
      "type": "function"
    },
    {
      "inputs": [
        {
          "internalType": "uint256",
          "name": "assetId",
          "type": "uint256"
        }
      ],
      "name": "invest",
      "outputs": [],
      "stateMutability": "payable",
      "type": "function"
    },
    {
      "inputs": [
        {
          "internalType": "address",
          "name": "",
          "type": "address"
        },
        {
          "internalType": "uint256",
          "name": "",
          "type": "uint256"
        }
      ],
      "name": "positions",
      "outputs": [
        {
          "internalType": "uint256",
          "name": "assetId",
          "type": "uint256"
        },
        {
          "internalType": "uint256",
          "name": "amount",
          "type": "uint256"
        },
        {
          "internalType": "uint256",
          "name": "timestamp",
          "type": "uint256"
        }
      ],
      "stateMutability": "view",
      "type": "function"
    }
  ],
  "bytecode": "0x608060405234801561001057600080fd5b50610673806100206000396000f3fe6080604052600436106100345760003560e01c80632afcf480146100395780633eeb530e14610055578063c1be667714610092575b600080fd5b610053600480360381019061004e9190610345565b6100d1565b005b34801561006157600080fd5b5061007c600480360381019061007791906103d0565b610208565b60405161008991906104fd565b60405180910390f35b34801561009e57600080fd5b506100b960048036038101906100b4919061051f565b6102c3565b6040516100c89392919061056e565b60405180910390f35b60003411610114576040517f08c379a000000000000000000000000000000000000000000000000000000000815260040161010b90610602565b60405180910390fd5b6000803373ffffffffffffffffffffffffffffffffffffffff1673ffffffffffffffffffffffffffffffffffffffff16815260200190815260200160002060405180606001604052808381526020013481526020014281525090806001815401808255809150506001900390600052602060002090600302016000909190919091506000820151816000015560208201518160010155604082015181600201555050803373ffffffffffffffffffffffffffffffffffffffff167f9e9d071824fd57d062ca63fd8b786d8da48a6807eebbcb2d83f9e8d21398e28c346040516101fd9190610622565b60405180910390a350565b60606000808373ffffffffffffffffffffffffffffffffffffffff1673ffffffffffffffffffffffffffffffffffffffff168152602001908152602001600020805480602002602001604051908101604052809291908181526020016000905b828210156102b85783829060005260206000209060030201604051806060016040529081600082015481526020016001820154815260200160028201548152505081526020019060010190610268565b505050509050919050565b600060205281600052604060002081815481106102df57600080fd5b9060005260206000209060030201600091509150508060000154908060010154908060020154905083565b600080fd5b6000819050919050565b6103228161030f565b811461032d57600080fd5b50565b60008135905061033f81610319565b92915050565b60006020828403121561035b5761035a61030a565b5b600061036984828501610330565b91505092915050565b600073ffffffffffffffffffffffffffffffffffffffff82169050919050565b600061039d82610372565b9050919050565b6103ad81610392565b81146103b857600080fd5b50565b6000813590506103ca816103a4565b92915050565b6000602082840312156103e6576103e561030a565b5b60006103f4848285016103bb565b91505092915050565b600081519050919050565b600082825260208201905092915050565b6000819050602082019050919050565b6104328161030f565b82525050565b60608201600082015161044e6000850182610429565b5060208201516104616020850182610429565b5060408201516104746040850182610429565b50505050565b60006104868383610438565b60608301905092915050565b6000602082019050919050565b60006104aa826103fd565b6104b48185610408565b93506104bf83610419565b8060005b838110156104f05781516104d7888261047a565b97506104e283610492565b9250506001810190506104c3565b5085935050505092915050565b60006020820190508181036000830152610517818461049f565b905092915050565b600080604083850312156105365761053561030a565b5b6000610544858286016103bb565b925050602061055585828601610330565b9150509250929050565b6105688161030f565b82525050565b6000606082019050610583600083018661055f565b610590602083018561055f565b61059d604083018461055f565b949350505050565b600082825260208201905092915050565b7f4e6f2076616c75652073656e7400000000000000000000000000000000000000600082015250565b60006105ec600d836105a5565b91506105f7826105b6565b602082019050919050565b6000602082019050818103600083015261061b816105df565b9050919050565b6000602082019050610637600083018461055f565b9291505056fea2646970667358221220504f43c98fdfda00955f01fe8e02616e59382ac7ccd57a12e11ffc975dbb22f164736f6c63430008140033",
  "linkReferences": {},
  "deployedLinkReferences": {}
}